{
  "contractName": "MultiSigWallet",
  "abi": [
    {
      "inputs": [
        {
          "internalType": "address[]",
          "name": "_owners",
          "type": "address[]"
        },
        {
          "internalType": "uint256",
          "name": "_limit",
          "type": "uint256"
        }
      ],
      "stateMutability": "nonpayable",
      "type": "constructor"
    },
    {
      "anonymous": false,
      "inputs": [
        {
          "indexed": false,
          "internalType": "uint256",
          "name": "_id",
          "type": "uint256"
        },
        {
          "indexed": false,
          "internalType": "uint256",
          "name": "_approvals",
          "type": "uint256"
        },
        {
          "indexed": false,
          "internalType": "address",
          "name": "_approver",
          "type": "address"
        }
      ],
      "name": "ApprovalReceived",
      "type": "event"
    },
    {
      "anonymous": false,
      "inputs": [
        {
          "indexed": false,
          "internalType": "uint256",
          "name": "_id",
          "type": "uint256"
        }
      ],
      "name": "TransferApproved",
      "type": "event"
    },
    {
      "anonymous": false,
      "inputs": [
        {
          "indexed": false,
          "internalType": "uint256",
          "name": "_id",
          "type": "uint256"
        },
        {
          "indexed": false,
          "internalType": "uint256",
          "name": "_amount",
          "type": "uint256"
        },
        {
          "indexed": false,
          "internalType": "address",
          "name": "_initiator",
          "type": "address"
        },
        {
          "indexed": false,
          "internalType": "address",
          "name": "_receiver",
          "type": "address"
        }
      ],
      "name": "TransferRequestCreated",
      "type": "event"
    },
    {
      "inputs": [
        {
          "internalType": "uint256",
          "name": "",
          "type": "uint256"
        }
      ],
      "name": "owners",
      "outputs": [
        {
          "internalType": "address",
          "name": "",
          "type": "address"
        }
      ],
      "stateMutability": "view",
      "type": "function"
    },
    {
      "inputs": [],
      "name": "deposit",
      "outputs": [],
      "stateMutability": "payable",
      "type": "function"
    },
    {
      "inputs": [
        {
          "internalType": "uint256",
          "name": "_amount",
          "type": "uint256"
        },
        {
          "internalType": "address payable",
          "name": "_receiver",
          "type": "address"
        }
      ],
      "name": "createTransfer",
      "outputs": [],
      "stateMutability": "nonpayable",
      "type": "function"
    },
    {
      "inputs": [
        {
          "internalType": "uint256",
          "name": "_id",
          "type": "uint256"
        }
      ],
      "name": "approve",
      "outputs": [],
      "stateMutability": "nonpayable",
      "type": "function"
    },
    {
      "inputs": [],
      "name": "getTransferRequests",
      "outputs": [
        {
          "components": [
            {
              "internalType": "uint256",
              "name": "amount",
              "type": "uint256"
            },
            {
              "internalType": "address payable",
              "name": "receiver",
              "type": "address"
            },
            {
              "internalType": "uint256",
              "name": "approvals",
              "type": "uint256"
            },
            {
              "internalType": "bool",
              "name": "hasBeenSent",
              "type": "bool"
            },
            {
              "internalType": "uint256",
              "name": "id",
              "type": "uint256"
            }
          ],
          "internalType": "struct MultiSigWallet.Transfer[]",
          "name": "",
          "type": "tuple[]"
        }
      ],
      "stateMutability": "view",
      "type": "function"
    }
  ],
  "bytecode": "0x60806040523480156200001157600080fd5b506040516200102b3803806200102b833981810160405281019062000037919062000336565b81600090805190602001906200004f9291906200005f565b508060018190555050506200039c565b828054828255906000526020600020908101928215620000db579160200282015b82811115620000da5782518260006101000a81548173ffffffffffffffffffffffffffffffffffffffff021916908373ffffffffffffffffffffffffffffffffffffffff1602179055509160200191906001019062000080565b5b509050620000ea9190620000ee565b5090565b5b8082111562000109576000816000905550600101620000ef565b5090565b6000604051905090565b600080fd5b600080fd5b600080fd5b6000601f19601f8301169050919050565b7f4e487b7100000000000000000000000000000000000000000000000000000000600052604160045260246000fd5b620001718262000126565b810181811067ffffffffffffffff8211171562000193576200019262000137565b5b80604052505050565b6000620001a86200010d565b9050620001b6828262000166565b919050565b600067ffffffffffffffff821115620001d957620001d862000137565b5b602082029050602081019050919050565b600080fd5b600073ffffffffffffffffffffffffffffffffffffffff82169050919050565b60006200021c82620001ef565b9050919050565b6200022e816200020f565b81146200023a57600080fd5b50565b6000815190506200024e8162000223565b92915050565b60006200026b6200026584620001bb565b6200019c565b90508083825260208201905060208402830185811115620002915762000290620001ea565b5b835b81811015620002be5780620002a988826200023d565b84526020840193505060208101905062000293565b5050509392505050565b600082601f830112620002e057620002df62000121565b5b8151620002f284826020860162000254565b91505092915050565b6000819050919050565b6200031081620002fb565b81146200031c57600080fd5b50565b600081519050620003308162000305565b92915050565b6000806040838503121562000350576200034f62000117565b5b600083015167ffffffffffffffff8111156200037157620003706200011c565b5b6200037f85828601620002c8565b925050602062000392858286016200031f565b9150509250929050565b610c7f80620003ac6000396000f3fe60806040526004361061004a5760003560e01c8063025e7c271461004f5780634c12fa471461008c578063a04ef145146100b5578063b759f954146100e0578063d0e30db014610109575b600080fd5b34801561005b57600080fd5b5061007660048036038101906100719190610824565b610113565b6040516100839190610892565b60405180910390f35b34801561009857600080fd5b506100b360048036038101906100ae91906108eb565b610152565b005b3480156100c157600080fd5b506100ca61033e565b6040516100d79190610a7b565b60405180910390f35b3480156100ec57600080fd5b5061010760048036038101906101029190610824565b61042c565b005b6101116107e7565b005b6000818154811061012357600080fd5b906000526020600020016000915054906101000a900473ffffffffffffffffffffffffffffffffffffffff1681565b6000805b6000805490508110156101ed573373ffffffffffffffffffffffffffffffffffffffff166000828154811061018e5761018d610a9d565b5b9060005260206000200160009054906101000a900473ffffffffffffffffffffffffffffffffffffffff1673ffffffffffffffffffffffffffffffffffffffff1614156101da57600191505b80806101e590610afb565b915050610156565b5060011515811515146101ff57600080fd5b7f099c4ec4ecfc26f7c8b27aeee5443f92120fa2c4e91ba6020369ae71a4d442786002805490508433856040516102399493929190610bb2565b60405180910390a160026040518060a001604052808581526020018473ffffffffffffffffffffffffffffffffffffffff1681526020016000815260200160001515815260200160028054905081525090806001815401808255809150506001900390600052602060002090600502016000909190919091506000820151816000015560208201518160010160006101000a81548173ffffffffffffffffffffffffffffffffffffffff021916908373ffffffffffffffffffffffffffffffffffffffff1602179055506040820151816002015560608201518160030160006101000a81548160ff021916908315150217905550608082015181600401555050505050565b60606002805480602002602001604051908101604052809291908181526020016000905b8282101561042357838290600052602060002090600502016040518060a0016040529081600082015481526020016001820160009054906101000a900473ffffffffffffffffffffffffffffffffffffffff1673ffffffffffffffffffffffffffffffffffffffff1673ffffffffffffffffffffffffffffffffffffffff168152602001600282015481526020016003820160009054906101000a900460ff1615151515815260200160048201548152505081526020019060010190610362565b50505050905090565b6000805b6000805490508110156104c7573373ffffffffffffffffffffffffffffffffffffffff166000828154811061046857610467610a9d565b5b9060005260206000200160009054906101000a900473ffffffffffffffffffffffffffffffffffffffff1673ffffffffffffffffffffffffffffffffffffffff1614156104b457600191505b80806104bf90610afb565b915050610430565b5060011515811515146104d957600080fd5b60001515600360003373ffffffffffffffffffffffffffffffffffffffff1673ffffffffffffffffffffffffffffffffffffffff168152602001908152602001600020600084815260200190815260200160002060009054906101000a900460ff1615151461054757600080fd5b600015156002838154811061055f5761055e610a9d565b5b906000526020600020906005020160030160009054906101000a900460ff1615151461058a57600080fd5b6001600360003373ffffffffffffffffffffffffffffffffffffffff1673ffffffffffffffffffffffffffffffffffffffff168152602001908152602001600020600084815260200190815260200160002060006101000a81548160ff0219169083151502179055506002828154811061060757610606610a9d565b5b9060005260206000209060050201600201600081548092919061062990610afb565b91905055507ffec9d12d15ee8c8b836a58347cb0d4980db38411bcd0b83662cee48fb20b6dee826002848154811061066457610663610a9d565b5b9060005260206000209060050201600201543360405161068693929190610bf7565b60405180910390a1600154600283815481106106a5576106a4610a9d565b5b906000526020600020906005020160020154106107e3576001600283815481106106d2576106d1610a9d565b5b906000526020600020906005020160030160006101000a81548160ff0219169083151502179055506002828154811061070e5761070d610a9d565b5b906000526020600020906005020160010160009054906101000a900473ffffffffffffffffffffffffffffffffffffffff1673ffffffffffffffffffffffffffffffffffffffff166108fc6002848154811061076d5761076c610a9d565b5b9060005260206000209060050201600001549081150290604051600060405180830381858888f193505050501580156107aa573d6000803e3d6000fd5b507fd9bbf1d8bef570b7e92ef1ba025425fc15915ae01f3d3be144cdc8be05442eb5826040516107da9190610c2e565b60405180910390a15b5050565b565b600080fd5b6000819050919050565b610801816107ee565b811461080c57600080fd5b50565b60008135905061081e816107f8565b92915050565b60006020828403121561083a576108396107e9565b5b60006108488482850161080f565b91505092915050565b600073ffffffffffffffffffffffffffffffffffffffff82169050919050565b600061087c82610851565b9050919050565b61088c81610871565b82525050565b60006020820190506108a76000830184610883565b92915050565b60006108b882610851565b9050919050565b6108c8816108ad565b81146108d357600080fd5b50565b6000813590506108e5816108bf565b92915050565b60008060408385031215610902576109016107e9565b5b60006109108582860161080f565b9250506020610921858286016108d6565b9150509250929050565b600081519050919050565b600082825260208201905092915050565b6000819050602082019050919050565b610960816107ee565b82525050565b61096f816108ad565b82525050565b60008115159050919050565b61098a81610975565b82525050565b60a0820160008201516109a66000850182610957565b5060208201516109b96020850182610966565b5060408201516109cc6040850182610957565b5060608201516109df6060850182610981565b5060808201516109f26080850182610957565b50505050565b6000610a048383610990565b60a08301905092915050565b6000602082019050919050565b6000610a288261092b565b610a328185610936565b9350610a3d83610947565b8060005b83811015610a6e578151610a5588826109f8565b9750610a6083610a10565b925050600181019050610a41565b5085935050505092915050565b60006020820190508181036000830152610a958184610a1d565b905092915050565b7f4e487b7100000000000000000000000000000000000000000000000000000000600052603260045260246000fd5b7f4e487b7100000000000000000000000000000000000000000000000000000000600052601160045260246000fd5b6000610b06826107ee565b91507fffffffffffffffffffffffffffffffffffffffffffffffffffffffffffffffff821415610b3957610b38610acc565b5b600182019050919050565b610b4d816107ee565b82525050565b6000819050919050565b6000610b78610b73610b6e84610851565b610b53565b610851565b9050919050565b6000610b8a82610b5d565b9050919050565b6000610b9c82610b7f565b9050919050565b610bac81610b91565b82525050565b6000608082019050610bc76000830187610b44565b610bd46020830186610b44565b610be16040830185610883565b610bee6060830184610ba3565b95945050505050565b6000606082019050610c0c6000830186610b44565b610c196020830185610b44565b610c266040830184610883565b949350505050565b6000602082019050610c436000830184610b44565b9291505056fea2646970667358221220abadea9e8597dc154e6e669e2eba603fe3ff5e3ae72a45e035a53d9b64585a6364736f6c634300080a0033",
  "immutableReferences": {},
  "source": "// SPDX-License-Identifier: MIT\npragma solidity >=0.4.22 <0.9.0;\npragma abicoder v2;\n\ncontract MultiSigWallet {\n    address[] public owners;\n    uint limit;\n    \n    struct Transfer{\n        uint amount;\n        address payable receiver;\n        uint approvals;\n        bool hasBeenSent;\n        uint id;\n    }\n    \n    Transfer[] transferRequests;\n\n    event TransferRequestCreated(uint _id, uint _amount, address _initiator, address _receiver);\n    event ApprovalReceived(uint _id, uint _approvals, address _approver);\n    event TransferApproved(uint _id);\n\n\n    mapping(address => mapping(uint => bool)) approvals;\n    \n    //Should only allow people in the owners list to continue the execution.\n    modifier onlyOwners(){\n      bool owner = false;\n      for(uint i=0;i<owners.length;i++){\n        if(owners[i] == msg.sender){\n          owner = true;\n        }\n      }\n      require(owner ==true);\n      \n    _;}\n    //Should initialize the owners list and the limit \n    constructor(address[] memory _owners, uint _limit) {\n      owners = _owners;\n      limit = _limit;\n    }\n    \n    //Empty function\n    function deposit() public payable {}\n    \n    //Create an instance of the Transfer struct and add it to the transferRequests array\n    function createTransfer(uint _amount, address payable _receiver) public onlyOwners {\n      emit TransferRequestCreated(transferRequests.length, _amount, msg.sender, _receiver);\n      transferRequests.push(Transfer(_amount, _receiver, 0, false, transferRequests.length));\n        \n    }\n    \n    //Set your approval for one of the transfer requests.\n    //Need to update the Transfer object.\n    //Need to update the mapping to record the approval for the msg.sender.\n    //When the amount of approvals for a transfer has reached the limit, this function should send the transfer to the recipient.\n    //An owner should not be able to vote twice.\n    //An owner should not be able to vote on a tranfer request that has already been sent.\n    function approve(uint _id) public onlyOwners {\n      require(approvals[msg.sender][_id] == false);\n      require(transferRequests[_id].hasBeenSent == false);\n\n      approvals[msg.sender][_id] = true;\n      transferRequests[_id].approvals++;\n\n      emit ApprovalReceived(_id, transferRequests[_id].approvals, msg.sender);\n\n      if(transferRequests[_id].approvals >= limit){\n        transferRequests[_id].hasBeenSent = true;\n        transferRequests[_id].receiver.transfer(transferRequests[_id].amount);\n        emit TransferApproved(_id);\n      }\n    }\n    \n    //Should return all transfer requests\n    function getTransferRequests() public view returns (Transfer[] memory){\n      return transferRequests;\n    }\n    \n    \n}\n\n",
  "sourcePath": "/Users/darynatokmachova/Downloads/Token/contracts/MultiSigWallet.sol",
  "compiler": {
    "name": "solc",
    "version": "0.8.10+commit.fc410830.Emscripten.clang"
  },
  "schemaVersion": "3.4.3",
  "updatedAt": "2021-11-27T12:33:15.346Z",
  "devdoc": {
    "kind": "dev",
    "methods": {},
    "version": 1
  },
  "userdoc": {
    "kind": "user",
    "methods": {},
    "version": 1
  }
}